{
  "_format": "hh-sol-artifact-1",
  "contractName": "SampleContract",
  "sourceName": "contracts/SampleContract.sol",
  "abi": [
    {
      "inputs": [
        {
          "internalType": "uint256",
          "name": "_initialCount",
          "type": "uint256"
        }
      ],
      "stateMutability": "nonpayable",
      "type": "constructor"
    },
    {
      "inputs": [],
      "name": "getCount",
      "outputs": [
        {
          "internalType": "uint256",
          "name": "",
          "type": "uint256"
        }
      ],
      "stateMutability": "view",
      "type": "function"
    },
    {
      "inputs": [],
      "name": "getName",
      "outputs": [
        {
          "internalType": "string",
          "name": "",
          "type": "string"
        }
      ],
      "stateMutability": "pure",
      "type": "function"
    },
    {
      "inputs": [],
      "name": "getOwner",
      "outputs": [
        {
          "internalType": "address",
          "name": "",
          "type": "address"
        }
      ],
      "stateMutability": "view",
      "type": "function"
    },
    {
      "inputs": [
        {
          "internalType": "uint256",
          "name": "_arbitrartNumber",
          "type": "uint256"
        }
      ],
      "name": "increaseArbitrary",
      "outputs": [],
      "stateMutability": "nonpayable",
      "type": "function"
    },
    {
      "inputs": [],
      "name": "incrementCount",
      "outputs": [],
      "stateMutability": "nonpayable",
      "type": "function"
    },
    {
      "inputs": [],
      "name": "name",
      "outputs": [
        {
          "internalType": "string",
          "name": "",
          "type": "string"
        }
      ],
      "stateMutability": "view",
      "type": "function"
    }
  ],
  "bytecode": "0x6080604052600060015534801561001557600080fd5b5060405161057538038061057583398181016040528101906100379190610099565b80600181905550336000806101000a81548173ffffffffffffffffffffffffffffffffffffffff021916908373ffffffffffffffffffffffffffffffffffffffff160217905550506100e3565b600081519050610093816100cc565b92915050565b6000602082840312156100ab57600080fd5b60006100b984828501610084565b91505092915050565b6000819050919050565b6100d5816100c2565b81146100e057600080fd5b50565b610483806100f26000396000f3fe608060405234801561001057600080fd5b50600436106100625760003560e01c806306fdde031461006757806317d7de7c146100855780632ecdef2b146100a3578063893d20e8146100bf578063a87d942c146100dd578063e5071b8e146100fb575b600080fd5b61006f610105565b60405161007c919061028f565b60405180910390f35b61008d61013e565b60405161009a919061028f565b60405180910390f35b6100bd60048036038101906100b891906101f4565b61017b565b005b6100c7610192565b6040516100d49190610274565b60405180910390f35b6100e56101bb565b6040516100f291906102b1565b60405180910390f35b6101036101c5565b005b6040518060400160405280600e81526020017f53616d706c65436f6e747261637400000000000000000000000000000000000081525081565b60606040518060400160405280600e81526020017f53616d706c65436f6e7472616374000000000000000000000000000000000000815250905090565b8060015461018991906102e8565b60018190555050565b60008060009054906101000a900473ffffffffffffffffffffffffffffffffffffffff16905090565b6000600154905090565b600160008154809291906101d8906103ad565b9190505550565b6000813590506101ee81610436565b92915050565b60006020828403121561020657600080fd5b6000610214848285016101df565b91505092915050565b6102268161033e565b82525050565b6000610237826102cc565b61024181856102d7565b935061025181856020860161037a565b61025a81610425565b840191505092915050565b61026e81610370565b82525050565b6000602082019050610289600083018461021d565b92915050565b600060208201905081810360008301526102a9818461022c565b905092915050565b60006020820190506102c66000830184610265565b92915050565b600081519050919050565b600082825260208201905092915050565b60006102f382610370565b91506102fe83610370565b9250827fffffffffffffffffffffffffffffffffffffffffffffffffffffffffffffffff03821115610333576103326103f6565b5b828201905092915050565b600061034982610350565b9050919050565b600073ffffffffffffffffffffffffffffffffffffffff82169050919050565b6000819050919050565b60005b8381101561039857808201518184015260208101905061037d565b838111156103a7576000848401525b50505050565b60006103b882610370565b91507fffffffffffffffffffffffffffffffffffffffffffffffffffffffffffffffff8214156103eb576103ea6103f6565b5b600182019050919050565b7f4e487b7100000000000000000000000000000000000000000000000000000000600052601160045260246000fd5b6000601f19601f8301169050919050565b61043f81610370565b811461044a57600080fd5b5056fea264697066735822122083858f44b9ea61aa0eca3e6c67033171d1f16470dbf98d0633e454669b26367764736f6c63430008040033",
  "linkReferences": {},
  "deployedLinkReferences": {}
}